{
  "_format": "hh-sol-artifact-1",
  "contractName": "PatientRecords",
  "sourceName": "contracts/PatientRecords.sol",
  "abi": [
    {
      "anonymous": false,
      "inputs": [
        {
          "indexed": true,
          "internalType": "address",
          "name": "signer",
          "type": "address"
        },
        {
          "indexed": true,
          "internalType": "bytes32",
          "name": "prescriptionId",
          "type": "bytes32"
        },
        {
          "indexed": false,
          "internalType": "string",
          "name": "cid",
          "type": "string"
        },
        {
          "indexed": false,
          "internalType": "uint256",
          "name": "timestamp",
          "type": "uint256"
        }
      ],
      "name": "RecordAdded",
      "type": "event"
    },
    {
      "anonymous": false,
      "inputs": [
        {
          "indexed": true,
          "internalType": "address",
          "name": "signer",
          "type": "address"
        },
        {
          "indexed": true,
          "internalType": "bytes32",
          "name": "prescriptionId",
          "type": "bytes32"
        },
        {
          "indexed": false,
          "internalType": "string",
          "name": "newCid",
          "type": "string"
        },
        {
          "indexed": false,
          "internalType": "uint256",
          "name": "timestamp",
          "type": "uint256"
        }
      ],
      "name": "RecordUpdated",
      "type": "event"
    },
    {
      "inputs": [
        {
          "internalType": "string",
          "name": "ipfsCid",
          "type": "string"
        }
      ],
      "name": "addRecord",
      "outputs": [
        {
          "internalType": "bytes32",
          "name": "",
          "type": "bytes32"
        }
      ],
      "stateMutability": "nonpayable",
      "type": "function"
    },
    {
      "inputs": [
        {
          "internalType": "bytes32",
          "name": "prescriptionId",
          "type": "bytes32"
        }
      ],
      "name": "getRecord",
      "outputs": [
        {
          "internalType": "string",
          "name": "ipfsCid",
          "type": "string"
        },
        {
          "internalType": "address",
          "name": "signer",
          "type": "address"
        },
        {
          "internalType": "uint256",
          "name": "timestamp",
          "type": "uint256"
        }
      ],
      "stateMutability": "view",
      "type": "function"
    },
    {
      "inputs": [
        {
          "internalType": "bytes32",
          "name": "",
          "type": "bytes32"
        }
      ],
      "name": "records",
      "outputs": [
        {
          "internalType": "string",
          "name": "ipfsCid",
          "type": "string"
        },
        {
          "internalType": "address",
          "name": "signer",
          "type": "address"
        },
        {
          "internalType": "uint256",
          "name": "timestamp",
          "type": "uint256"
        }
      ],
      "stateMutability": "view",
      "type": "function"
    },
    {
      "inputs": [
        {
          "internalType": "bytes32",
          "name": "prescriptionId",
          "type": "bytes32"
        },
        {
          "internalType": "string",
          "name": "newCid",
          "type": "string"
        }
      ],
      "name": "updateRecord",
      "outputs": [],
      "stateMutability": "nonpayable",
      "type": "function"
    }
  ],
  "bytecode": "0x6080604052348015600f57600080fd5b50610e568061001f6000396000f3fe608060405234801561001057600080fd5b506004361061004c5760003560e01c806301e6472514610051578063213681cd14610083578063d81aa8c4146100b5578063fe2106b0146100e5575b600080fd5b61006b600480360381019061006691906105e8565b610101565b60405161007a939291906106ff565b60405180910390f35b61009d600480360381019061009891906105e8565b6101d3565b6040516100ac939291906106ff565b60405180910390f35b6100cf60048036038101906100ca91906107a2565b610308565b6040516100dc91906107fe565b60405180910390f35b6100ff60048036038101906100fa9190610819565b61048a565b005b6000602052806000526040600020600091509050806000018054610124906108a8565b80601f0160208091040260200160405190810160405280929190818152602001828054610150906108a8565b801561019d5780601f106101725761010080835404028352916020019161019d565b820191906000526020600020905b81548152906001019060200180831161018057829003601f168201915b5050505050908060010160009054906101000a900473ffffffffffffffffffffffffffffffffffffffff16908060020154905083565b60606000806000806000868152602001908152602001600020604051806060016040529081600082018054610207906108a8565b80601f0160208091040260200160405190810160405280929190818152602001828054610233906108a8565b80156102805780601f1061025557610100808354040283529160200191610280565b820191906000526020600020905b81548152906001019060200180831161026357829003601f168201915b505050505081526020016001820160009054906101000a900473ffffffffffffffffffffffffffffffffffffffff1673ffffffffffffffffffffffffffffffffffffffff1673ffffffffffffffffffffffffffffffffffffffff1681526020016002820154815250509050806000015181602001518260400151935093509350509193909250565b6000803342858544604051602001610324959493929190610981565b604051602081830303815290604052805190602001209050604051806060016040528085858080601f016020809104026020016040519081016040528093929190818152602001838380828437600081840152601f19601f8201169050808301925050505050505081526020013373ffffffffffffffffffffffffffffffffffffffff1681526020014281525060008083815260200190815260200160002060008201518160000190816103d89190610ba8565b5060208201518160010160006101000a81548173ffffffffffffffffffffffffffffffffffffffff021916908373ffffffffffffffffffffffffffffffffffffffff16021790555060408201518160020155905050803373ffffffffffffffffffffffffffffffffffffffff167fa9683b0dd50ab7a712a87c5908d8c3bd2f463141cc4e3deda37c689efc9f1dae86864260405161047893929190610ca7565b60405180910390a38091505092915050565b600080600085815260200190815260200160002090503373ffffffffffffffffffffffffffffffffffffffff168160010160009054906101000a900473ffffffffffffffffffffffffffffffffffffffff1673ffffffffffffffffffffffffffffffffffffffff1614610532576040517f08c379a000000000000000000000000000000000000000000000000000000000815260040161052990610d25565b60405180910390fd5b8282826000019182610545929190610d50565b50428160020181905550833373ffffffffffffffffffffffffffffffffffffffff167f0f86019387107d5081860df8e9d13f1fe0705685d8d0817d1574c91fec16636b85854260405161059a93929190610ca7565b60405180910390a350505050565b600080fd5b600080fd5b6000819050919050565b6105c5816105b2565b81146105d057600080fd5b50565b6000813590506105e2816105bc565b92915050565b6000602082840312156105fe576105fd6105a8565b5b600061060c848285016105d3565b91505092915050565b600081519050919050565b600082825260208201905092915050565b60005b8381101561064f578082015181840152602081019050610634565b60008484015250505050565b6000601f19601f8301169050919050565b600061067782610615565b6106818185610620565b9350610691818560208601610631565b61069a8161065b565b840191505092915050565b600073ffffffffffffffffffffffffffffffffffffffff82169050919050565b60006106d0826106a5565b9050919050565b6106e0816106c5565b82525050565b6000819050919050565b6106f9816106e6565b82525050565b60006060820190508181036000830152610719818661066c565b905061072860208301856106d7565b61073560408301846106f0565b949350505050565b600080fd5b600080fd5b600080fd5b60008083601f8401126107625761076161073d565b5b8235905067ffffffffffffffff81111561077f5761077e610742565b5b60208301915083600182028301111561079b5761079a610747565b5b9250929050565b600080602083850312156107b9576107b86105a8565b5b600083013567ffffffffffffffff8111156107d7576107d66105ad565b5b6107e38582860161074c565b92509250509250929050565b6107f8816105b2565b82525050565b600060208201905061081360008301846107ef565b92915050565b600080600060408486031215610832576108316105a8565b5b6000610840868287016105d3565b935050602084013567ffffffffffffffff811115610861576108606105ad565b5b61086d8682870161074c565b92509250509250925092565b7f4e487b7100000000000000000000000000000000000000000000000000000000600052602260045260246000fd5b600060028204905060018216806108c057607f821691505b6020821081036108d3576108d2610879565b5b50919050565b60008160601b9050919050565b60006108f1826108d9565b9050919050565b6000610903826108e6565b9050919050565b61091b610916826106c5565b6108f8565b82525050565b6000819050919050565b61093c610937826106e6565b610921565b82525050565b600081905092915050565b82818337600083830152505050565b60006109688385610942565b935061097583858461094d565b82840190509392505050565b600061098d828861090a565b60148201915061099d828761092b565b6020820191506109ae82858761095c565b91506109ba828461092b565b6020820191508190509695505050505050565b7f4e487b7100000000000000000000000000000000000000000000000000000000600052604160045260246000fd5b60008190508160005260206000209050919050565b60006020601f8301049050919050565b600082821b905092915050565b600060088302610a5e7fffffffffffffffffffffffffffffffffffffffffffffffffffffffffffffffff82610a21565b610a688683610a21565b95508019841693508086168417925050509392505050565b6000819050919050565b6000610aa5610aa0610a9b846106e6565b610a80565b6106e6565b9050919050565b6000819050919050565b610abf83610a8a565b610ad3610acb82610aac565b848454610a2e565b825550505050565b600090565b610ae8610adb565b610af3818484610ab6565b505050565b5b81811015610b1757610b0c600082610ae0565b600181019050610af9565b5050565b601f821115610b5c57610b2d816109fc565b610b3684610a11565b81016020851015610b45578190505b610b59610b5185610a11565b830182610af8565b50505b505050565b600082821c905092915050565b6000610b7f60001984600802610b61565b1980831691505092915050565b6000610b988383610b6e565b9150826002028217905092915050565b610bb182610615565b67ffffffffffffffff811115610bca57610bc96109cd565b5b610bd482546108a8565b610bdf828285610b1b565b600060209050601f831160018114610c125760008415610c00578287015190505b610c0a8582610b8c565b865550610c72565b601f198416610c20866109fc565b60005b82811015610c4857848901518255600182019150602085019450602081019050610c23565b86831015610c655784890151610c61601f891682610b6e565b8355505b6001600288020188555050505b505050505050565b6000610c868385610620565b9350610c9383858461094d565b610c9c8361065b565b840190509392505050565b60006040820190508181036000830152610cc2818587610c7a565b9050610cd160208301846106f0565b949350505050565b7f6f6e6c79207369676e65722063616e2075706461746500000000000000000000600082015250565b6000610d0f601683610620565b9150610d1a82610cd9565b602082019050919050565b60006020820190508181036000830152610d3e81610d02565b9050919050565b600082905092915050565b610d5a8383610d45565b67ffffffffffffffff811115610d7357610d726109cd565b5b610d7d82546108a8565b610d88828285610b1b565b6000601f831160018114610db75760008415610da5578287013590505b610daf8582610b8c565b865550610e17565b601f198416610dc5866109fc565b60005b82811015610ded57848901358255600182019150602085019450602081019050610dc8565b86831015610e0a5784890135610e06601f891682610b6e565b8355505b6001600288020188555050505b5050505050505056fea264697066735822122014189a1f1d708612a14043f6e58a087e40df75236f989f9f2d8d1c10a8f9857964736f6c634300081c0033",
  "linkReferences": {},
  "deployedLinkReferences": {}
}